{
  "_format": "hh-sol-artifact-1",
  "contractName": "CoordiChain",
  "sourceName": "contracts/CoordiChain.sol",
  "abi": [
    {
      "anonymous": false,
      "inputs": [
        {
          "indexed": false,
          "internalType": "uint256",
          "name": "boardId",
          "type": "uint256"
        },
        {
          "indexed": false,
          "internalType": "address",
          "name": "member",
          "type": "address"
        }
      ],
      "name": "MemberAdded",
      "type": "event"
    },
    {
      "anonymous": false,
      "inputs": [
        {
          "indexed": false,
          "internalType": "uint256",
          "name": "id",
          "type": "uint256"
        }
      ],
      "name": "TaskApproved",
      "type": "event"
    },
    {
      "anonymous": false,
      "inputs": [
        {
          "indexed": false,
          "internalType": "uint256",
          "name": "id",
          "type": "uint256"
        },
        {
          "indexed": false,
          "internalType": "address",
          "name": "owner",
          "type": "address"
        }
      ],
      "name": "TaskBoardCreated",
      "type": "event"
    },
    {
      "anonymous": false,
      "inputs": [
        {
          "indexed": false,
          "internalType": "uint256",
          "name": "id",
          "type": "uint256"
        },
        {
          "indexed": false,
          "internalType": "address",
          "name": "assignee",
          "type": "address"
        }
      ],
      "name": "TaskClaimed",
      "type": "event"
    },
    {
      "anonymous": false,
      "inputs": [
        {
          "indexed": false,
          "internalType": "uint256",
          "name": "id",
          "type": "uint256"
        },
        {
          "indexed": false,
          "internalType": "string",
          "name": "cid",
          "type": "string"
        }
      ],
      "name": "TaskCompleted",
      "type": "event"
    },
    {
      "anonymous": false,
      "inputs": [
        {
          "indexed": false,
          "internalType": "uint256",
          "name": "id",
          "type": "uint256"
        },
        {
          "indexed": false,
          "internalType": "address",
          "name": "creator",
          "type": "address"
        },
        {
          "indexed": false,
          "internalType": "string",
          "name": "cid",
          "type": "string"
        },
        {
          "indexed": false,
          "internalType": "uint256",
          "name": "boardId",
          "type": "uint256"
        }
      ],
      "name": "TaskCreated",
      "type": "event"
    },
    {
      "inputs": [
        {
          "internalType": "uint256",
          "name": "boardId",
          "type": "uint256"
        },
        {
          "internalType": "address",
          "name": "member",
          "type": "address"
        },
        {
          "internalType": "enum CoordiChain.Role",
          "name": "role",
          "type": "uint8"
        }
      ],
      "name": "addMember",
      "outputs": [],
      "stateMutability": "nonpayable",
      "type": "function"
    },
    {
      "inputs": [
        {
          "internalType": "uint256",
          "name": "taskId",
          "type": "uint256"
        }
      ],
      "name": "approveTask",
      "outputs": [],
      "stateMutability": "nonpayable",
      "type": "function"
    },
    {
      "inputs": [
        {
          "internalType": "uint256",
          "name": "taskId",
          "type": "uint256"
        }
      ],
      "name": "claimTask",
      "outputs": [],
      "stateMutability": "nonpayable",
      "type": "function"
    },
    {
      "inputs": [
        {
          "internalType": "uint256",
          "name": "taskId",
          "type": "uint256"
        },
        {
          "internalType": "string",
          "name": "deliverableCID",
          "type": "string"
        }
      ],
      "name": "completeTask",
      "outputs": [],
      "stateMutability": "nonpayable",
      "type": "function"
    },
    {
      "inputs": [
        {
          "internalType": "uint256",
          "name": "boardId",
          "type": "uint256"
        },
        {
          "internalType": "string",
          "name": "metadataCID",
          "type": "string"
        }
      ],
      "name": "createTask",
      "outputs": [],
      "stateMutability": "nonpayable",
      "type": "function"
    },
    {
      "inputs": [],
      "name": "createTaskBoard",
      "outputs": [
        {
          "internalType": "uint256",
          "name": "",
          "type": "uint256"
        }
      ],
      "stateMutability": "nonpayable",
      "type": "function"
    },
    {
      "inputs": [
        {
          "internalType": "uint256",
          "name": "boardId",
          "type": "uint256"
        }
      ],
      "name": "getBoardMembers",
      "outputs": [
        {
          "internalType": "address[]",
          "name": "",
          "type": "address[]"
        }
      ],
      "stateMutability": "view",
      "type": "function"
    },
    {
      "inputs": [
        {
          "internalType": "uint256",
          "name": "boardId",
          "type": "uint256"
        }
      ],
      "name": "getBoardOwner",
      "outputs": [
        {
          "internalType": "address",
          "name": "",
          "type": "address"
        }
      ],
      "stateMutability": "view",
      "type": "function"
    },
    {
      "inputs": [
        {
          "internalType": "uint256",
          "name": "boardId",
          "type": "uint256"
        },
        {
          "internalType": "address",
          "name": "user",
          "type": "address"
        }
      ],
      "name": "getBoardRole",
      "outputs": [
        {
          "internalType": "enum CoordiChain.Role",
          "name": "",
          "type": "uint8"
        }
      ],
      "stateMutability": "view",
      "type": "function"
    },
    {
      "inputs": [
        {
          "internalType": "uint256",
          "name": "boardId",
          "type": "uint256"
        }
      ],
      "name": "getBoardTasks",
      "outputs": [
        {
          "internalType": "uint256[]",
          "name": "",
          "type": "uint256[]"
        }
      ],
      "stateMutability": "view",
      "type": "function"
    },
    {
      "inputs": [
        {
          "internalType": "uint256",
          "name": "boardId",
          "type": "uint256"
        },
        {
          "internalType": "address",
          "name": "user",
          "type": "address"
        }
      ],
      "name": "isMember",
      "outputs": [
        {
          "internalType": "bool",
          "name": "",
          "type": "bool"
        }
      ],
      "stateMutability": "view",
      "type": "function"
    },
    {
      "inputs": [],
      "name": "nextBoardId",
      "outputs": [
        {
          "internalType": "uint256",
          "name": "",
          "type": "uint256"
        }
      ],
      "stateMutability": "view",
      "type": "function"
    },
    {
      "inputs": [],
      "name": "nextTaskId",
      "outputs": [
        {
          "internalType": "uint256",
          "name": "",
          "type": "uint256"
        }
      ],
      "stateMutability": "view",
      "type": "function"
    },
    {
      "inputs": [
        {
          "internalType": "uint256",
          "name": "",
          "type": "uint256"
        }
      ],
      "name": "tasks",
      "outputs": [
        {
          "internalType": "uint256",
          "name": "id",
          "type": "uint256"
        },
        {
          "internalType": "address",
          "name": "creator",
          "type": "address"
        },
        {
          "internalType": "address",
          "name": "assignee",
          "type": "address"
        },
        {
          "internalType": "enum CoordiChain.TaskStatus",
          "name": "status",
          "type": "uint8"
        },
        {
          "internalType": "string",
          "name": "metadataCID",
          "type": "string"
        },
        {
          "internalType": "string",
          "name": "deliverableCID",
          "type": "string"
        },
        {
          "internalType": "uint256",
          "name": "boardId",
          "type": "uint256"
        }
      ],
      "stateMutability": "view",
      "type": "function"
    }
  ],
  "bytecode": "0x6080604052348015600f57600080fd5b506124058061001f6000396000f3fe608060405234801561001057600080fd5b50600436106100ea5760003560e01c80638d9776721161008c578063b6430cce11610066578063b6430cce1461025f578063b80104d01461028f578063c46cd61e146102ad578063fdc3d8d7146102dd576100ea565b80638d977672146101dd5780638dd3349514610213578063933b376f1461022f576100ea565b806344873102116100c8578063448731021461014357806374aaa760146101735780637d9e10f51461018f578063817135e0146101bf576100ea565b80630a07fae6146100ef57806316d41b941461010b5780633f1fbc8614610127575b600080fd5b610109600480360381019061010491906114af565b6102fb565b005b61012560048036038101906101209190611622565b61051c565b005b610141600480360381019061013c9190611701565b610883565b005b61015d600480360381019061015891906114af565b610a39565b60405161016a9190611812565b60405180910390f35b61018d60048036038101906101889190611622565b610aa7565b005b6101a960048036038101906101a49190611834565b610d16565b6040516101b6919061188f565b60405180910390f35b6101c7610dd8565b6040516101d491906118b9565b60405180910390f35b6101f760048036038101906101f291906114af565b610dde565b60405161020a97969594939291906119d9565b60405180910390f35b61022d600480360381019061022891906114af565b610f7d565b005b610249600480360381019061024491906114af565b61118a565b6040516102569190611b14565b60405180910390f35b61027960048036038101906102749190611834565b61122e565b6040516102869190611b7e565b60405180910390f35b610297611299565b6040516102a491906118b9565b60405180910390f35b6102c760048036038101906102c291906114af565b61141f565b6040516102d49190611b99565b60405180910390f35b6102e561145f565b6040516102f291906118b9565b60405180910390f35b60006002600083815260200190815260200160002090506000600360008360050154815260200190815260200160002090506003808111156103405761033f6118e3565b5b8160030160003373ffffffffffffffffffffffffffffffffffffffff1673ffffffffffffffffffffffffffffffffffffffff16815260200190815260200160002060009054906101000a900460ff1660038111156103a1576103a06118e3565b5b14806103fc57508160010160009054906101000a900473ffffffffffffffffffffffffffffffffffffffff1673ffffffffffffffffffffffffffffffffffffffff163373ffffffffffffffffffffffffffffffffffffffff16145b61043b576040517f08c379a000000000000000000000000000000000000000000000000000000000815260040161043290611c26565b60405180910390fd5b6002600381111561044f5761044e6118e3565b5b8260020160149054906101000a900460ff166003811115610473576104726118e3565b5b146104b3576040517f08c379a00000000000000000000000000000000000000000000000000000000081526004016104aa90611c92565b60405180910390fd5b60038260020160146101000a81548160ff021916908360038111156104db576104da6118e3565b5b02179055507f3e9d27a1c2a828db29e4b2a17fbd1bc70201ef21aec4f74b9fa051b02e38e3f08360405161050f91906118b9565b60405180910390a1505050565b600060036000848152602001908152602001600020905060016003811115610547576105466118e3565b5b8160030160003373ffffffffffffffffffffffffffffffffffffffff1673ffffffffffffffffffffffffffffffffffffffff16815260200190815260200160002060009054906101000a900460ff1660038111156105a8576105a76118e3565b5b14806106265750600260038111156105c3576105c26118e3565b5b8160030160003373ffffffffffffffffffffffffffffffffffffffff1673ffffffffffffffffffffffffffffffffffffffff16815260200190815260200160002060009054906101000a900460ff166003811115610624576106236118e3565b5b145b610665576040517f08c379a000000000000000000000000000000000000000000000000000000000815260040161065c90611cfe565b60405180910390fd5b600080600081548092919061067990611d4d565b9190505590506040518060e001604052808281526020013373ffffffffffffffffffffffffffffffffffffffff168152602001600073ffffffffffffffffffffffffffffffffffffffff168152602001600060038111156106dd576106dc6118e3565b5b815260200184815260200160405180602001604052806000815250815260200185815250600260008381526020019081526020016000206000820151816000015560208201518160010160006101000a81548173ffffffffffffffffffffffffffffffffffffffff021916908373ffffffffffffffffffffffffffffffffffffffff16021790555060408201518160020160006101000a81548173ffffffffffffffffffffffffffffffffffffffff021916908373ffffffffffffffffffffffffffffffffffffffff16021790555060608201518160020160146101000a81548160ff021916908360038111156107d7576107d66118e3565b5b021790555060808201518160030190816107f19190611fa1565b5060a08201518160040190816108079190611fa1565b5060c08201518160050155905050816002018190806001815401808255809150506001900390600052602060002001600090919091909150557f9e3c9757475c00b86393e183b68033bb76e48fa164849c7428ad17f62e1954a7813385876040516108759493929190612073565b60405180910390a150505050565b60006003600085815260200190815260200160002090508060000160009054906101000a900473ffffffffffffffffffffffffffffffffffffffff1673ffffffffffffffffffffffffffffffffffffffff163373ffffffffffffffffffffffffffffffffffffffff161461092c576040517f08c379a00000000000000000000000000000000000000000000000000000000081526004016109239061210b565b60405180910390fd5b80600101839080600181540180825580915050600190039060005260206000200160009091909190916101000a81548173ffffffffffffffffffffffffffffffffffffffff021916908373ffffffffffffffffffffffffffffffffffffffff160217905550818160030160008573ffffffffffffffffffffffffffffffffffffffff1673ffffffffffffffffffffffffffffffffffffffff16815260200190815260200160002060006101000a81548160ff021916908360038111156109f5576109f46118e3565b5b02179055507ff328ac0f8bcae00933fe87ba0aa2d0d505c1df94bc9c1aa05b8441c28b74032c8484604051610a2b92919061212b565b60405180910390a150505050565b606060036000838152602001908152602001600020600201805480602002602001604051908101604052809291908181526020018280548015610a9b57602002820191906000526020600020905b815481526020019060010190808311610a87575b50505050509050919050565b600060026000848152602001908152602001600020905060006003600083600501548152602001908152602001600020905060026003811115610aed57610aec6118e3565b5b8160030160003373ffffffffffffffffffffffffffffffffffffffff1673ffffffffffffffffffffffffffffffffffffffff16815260200190815260200160002060009054906101000a900460ff166003811115610b4e57610b4d6118e3565b5b14610b8e576040517f08c379a0000000000000000000000000000000000000000000000000000000008152600401610b85906121a0565b60405180910390fd5b3373ffffffffffffffffffffffffffffffffffffffff168260020160009054906101000a900473ffffffffffffffffffffffffffffffffffffffff1673ffffffffffffffffffffffffffffffffffffffff1614610c20576040517f08c379a0000000000000000000000000000000000000000000000000000000008152600401610c179061220c565b60405180910390fd5b60016003811115610c3457610c336118e3565b5b8260020160149054906101000a900460ff166003811115610c5857610c576118e3565b5b14610c98576040517f08c379a0000000000000000000000000000000000000000000000000000000008152600401610c8f90612278565b60405180910390fd5b82826004019081610ca99190611fa1565b5060028260020160146101000a81548160ff02191690836003811115610cd257610cd16118e3565b5b02179055507f7e6ffc29fe63759579d96a0457a8f2e08339aca345bd469f59dc2e61f82a5aeb8484604051610d08929190612298565b60405180910390a150505050565b60008060036000858152602001908152602001600020905060005b8160010180549050811015610dcb578373ffffffffffffffffffffffffffffffffffffffff16826001018281548110610d6d57610d6c6122c8565b5b9060005260206000200160009054906101000a900473ffffffffffffffffffffffffffffffffffffffff1673ffffffffffffffffffffffffffffffffffffffff1603610dbe57600192505050610dd2565b8080600101915050610d31565b5060009150505b92915050565b60015481565b60026020528060005260406000206000915090508060000154908060010160009054906101000a900473ffffffffffffffffffffffffffffffffffffffff16908060020160009054906101000a900473ffffffffffffffffffffffffffffffffffffffff16908060020160149054906101000a900460ff1690806003018054610e6690611dc4565b80601f0160208091040260200160405190810160405280929190818152602001828054610e9290611dc4565b8015610edf5780601f10610eb457610100808354040283529160200191610edf565b820191906000526020600020905b815481529060010190602001808311610ec257829003601f168201915b505050505090806004018054610ef490611dc4565b80601f0160208091040260200160405190810160405280929190818152602001828054610f2090611dc4565b8015610f6d5780601f10610f4257610100808354040283529160200191610f6d565b820191906000526020600020905b815481529060010190602001808311610f5057829003601f168201915b5050505050908060050154905087565b600060026000838152602001908152602001600020905060006003600083600501548152602001908152602001600020905060026003811115610fc357610fc26118e3565b5b8160030160003373ffffffffffffffffffffffffffffffffffffffff1673ffffffffffffffffffffffffffffffffffffffff16815260200190815260200160002060009054906101000a900460ff166003811115611024576110236118e3565b5b14611064576040517f08c379a000000000000000000000000000000000000000000000000000000000815260040161105b90612343565b60405180910390fd5b60006003811115611078576110776118e3565b5b8260020160149054906101000a900460ff16600381111561109c5761109b6118e3565b5b146110dc576040517f08c379a00000000000000000000000000000000000000000000000000000000081526004016110d3906123af565b60405180910390fd5b338260020160006101000a81548173ffffffffffffffffffffffffffffffffffffffff021916908373ffffffffffffffffffffffffffffffffffffffff16021790555060018260020160146101000a81548160ff02191690836003811115611147576111466118e3565b5b02179055507f1d8996e29d44a50435d568c283ce2580e5706f87b19ff3d34f455c9d2a994620833360405161117d92919061212b565b60405180910390a1505050565b60606003600083815260200190815260200160002060010180548060200260200160405190810160405280929190818152602001828054801561122257602002820191906000526020600020905b8160009054906101000a900473ffffffffffffffffffffffffffffffffffffffff1673ffffffffffffffffffffffffffffffffffffffff16815260200190600101908083116111d8575b50505050509050919050565b60006003600084815260200190815260200160002060030160008373ffffffffffffffffffffffffffffffffffffffff1673ffffffffffffffffffffffffffffffffffffffff16815260200190815260200160002060009054906101000a900460ff16905092915050565b600080600160008154809291906112af90611d4d565b9190505590506000600360008381526020019081526020016000209050338160000160006101000a81548173ffffffffffffffffffffffffffffffffffffffff021916908373ffffffffffffffffffffffffffffffffffffffff16021790555080600101339080600181540180825580915050600190039060005260206000200160009091909190916101000a81548173ffffffffffffffffffffffffffffffffffffffff021916908373ffffffffffffffffffffffffffffffffffffffff16021790555060018160030160003373ffffffffffffffffffffffffffffffffffffffff1673ffffffffffffffffffffffffffffffffffffffff16815260200190815260200160002060006101000a81548160ff021916908360038111156113d9576113d86118e3565b5b02179055507fd2fa7ad987beeda2bbf61168739a2586e620dd6f1e1deed6f93f48cc2ec5f72c823360405161140f92919061212b565b60405180910390a1819250505090565b60006003600083815260200190815260200160002060000160009054906101000a900473ffffffffffffffffffffffffffffffffffffffff169050919050565b60005481565b6000604051905090565b600080fd5b600080fd5b6000819050919050565b61148c81611479565b811461149757600080fd5b50565b6000813590506114a981611483565b92915050565b6000602082840312156114c5576114c461146f565b5b60006114d38482850161149a565b91505092915050565b600080fd5b600080fd5b6000601f19601f8301169050919050565b7f4e487b7100000000000000000000000000000000000000000000000000000000600052604160045260246000fd5b61152f826114e6565b810181811067ffffffffffffffff8211171561154e5761154d6114f7565b5b80604052505050565b6000611561611465565b905061156d8282611526565b919050565b600067ffffffffffffffff82111561158d5761158c6114f7565b5b611596826114e6565b9050602081019050919050565b82818337600083830152505050565b60006115c56115c084611572565b611557565b9050828152602081018484840111156115e1576115e06114e1565b5b6115ec8482856115a3565b509392505050565b600082601f830112611609576116086114dc565b5b81356116198482602086016115b2565b91505092915050565b600080604083850312156116395761163861146f565b5b60006116478582860161149a565b925050602083013567ffffffffffffffff81111561166857611667611474565b5b611674858286016115f4565b9150509250929050565b600073ffffffffffffffffffffffffffffffffffffffff82169050919050565b60006116a98261167e565b9050919050565b6116b98161169e565b81146116c457600080fd5b50565b6000813590506116d6816116b0565b92915050565b600481106116e957600080fd5b50565b6000813590506116fb816116dc565b92915050565b60008060006060848603121561171a5761171961146f565b5b60006117288682870161149a565b9350506020611739868287016116c7565b925050604061174a868287016116ec565b9150509250925092565b600081519050919050565b600082825260208201905092915050565b6000819050602082019050919050565b61178981611479565b82525050565b600061179b8383611780565b60208301905092915050565b6000602082019050919050565b60006117bf82611754565b6117c9818561175f565b93506117d483611770565b8060005b838110156118055781516117ec888261178f565b97506117f7836117a7565b9250506001810190506117d8565b5085935050505092915050565b6000602082019050818103600083015261182c81846117b4565b905092915050565b6000806040838503121561184b5761184a61146f565b5b60006118598582860161149a565b925050602061186a858286016116c7565b9150509250929050565b60008115159050919050565b61188981611874565b82525050565b60006020820190506118a46000830184611880565b92915050565b6118b381611479565b82525050565b60006020820190506118ce60008301846118aa565b92915050565b6118dd8161169e565b82525050565b7f4e487b7100000000000000000000000000000000000000000000000000000000600052602160045260246000fd5b60048110611923576119226118e3565b5b50565b600081905061193482611912565b919050565b600061194482611926565b9050919050565b61195481611939565b82525050565b600081519050919050565b600082825260208201905092915050565b60005b83811015611994578082015181840152602081019050611979565b60008484015250505050565b60006119ab8261195a565b6119b58185611965565b93506119c5818560208601611976565b6119ce816114e6565b840191505092915050565b600060e0820190506119ee600083018a6118aa565b6119fb60208301896118d4565b611a0860408301886118d4565b611a15606083018761194b565b8181036080830152611a2781866119a0565b905081810360a0830152611a3b81856119a0565b9050611a4a60c08301846118aa565b98975050505050505050565b600081519050919050565b600082825260208201905092915050565b6000819050602082019050919050565b611a8b8161169e565b82525050565b6000611a9d8383611a82565b60208301905092915050565b6000602082019050919050565b6000611ac182611a56565b611acb8185611a61565b9350611ad683611a72565b8060005b83811015611b07578151611aee8882611a91565b9750611af983611aa9565b925050600181019050611ada565b5085935050505092915050565b60006020820190508181036000830152611b2e8184611ab6565b905092915050565b60048110611b4757611b466118e3565b5b50565b6000819050611b5882611b36565b919050565b6000611b6882611b4a565b9050919050565b611b7881611b5d565b82525050565b6000602082019050611b936000830184611b6f565b92915050565b6000602082019050611bae60008301846118d4565b92915050565b7f4f6e6c7920726576696577657273206f722063726561746f722063616e20617060008201527f70726f7665000000000000000000000000000000000000000000000000000000602082015250565b6000611c10602583611965565b9150611c1b82611bb4565b604082019050919050565b60006020820190508181036000830152611c3f81611c03565b9050919050565b7f5461736b206e6f7420636f6d706c657465640000000000000000000000000000600082015250565b6000611c7c601283611965565b9150611c8782611c46565b602082019050919050565b60006020820190508181036000830152611cab81611c6f565b9050919050565b7f4e6f7420617574686f72697a656420746f20637265617465207461736b730000600082015250565b6000611ce8601e83611965565b9150611cf382611cb2565b602082019050919050565b60006020820190508181036000830152611d1781611cdb565b9050919050565b7f4e487b7100000000000000000000000000000000000000000000000000000000600052601160045260246000fd5b6000611d5882611479565b91507fffffffffffffffffffffffffffffffffffffffffffffffffffffffffffffffff8203611d8a57611d89611d1e565b5b600182019050919050565b7f4e487b7100000000000000000000000000000000000000000000000000000000600052602260045260246000fd5b60006002820490506001821680611ddc57607f821691505b602082108103611def57611dee611d95565b5b50919050565b60008190508160005260206000209050919050565b60006020601f8301049050919050565b600082821b905092915050565b600060088302611e577fffffffffffffffffffffffffffffffffffffffffffffffffffffffffffffffff82611e1a565b611e618683611e1a565b95508019841693508086168417925050509392505050565b6000819050919050565b6000611e9e611e99611e9484611479565b611e79565b611479565b9050919050565b6000819050919050565b611eb883611e83565b611ecc611ec482611ea5565b848454611e27565b825550505050565b600090565b611ee1611ed4565b611eec818484611eaf565b505050565b5b81811015611f1057611f05600082611ed9565b600181019050611ef2565b5050565b601f821115611f5557611f2681611df5565b611f2f84611e0a565b81016020851015611f3e578190505b611f52611f4a85611e0a565b830182611ef1565b50505b505050565b600082821c905092915050565b6000611f7860001984600802611f5a565b1980831691505092915050565b6000611f918383611f67565b9150826002028217905092915050565b611faa8261195a565b67ffffffffffffffff811115611fc357611fc26114f7565b5b611fcd8254611dc4565b611fd8828285611f14565b600060209050601f83116001811461200b5760008415611ff9578287015190505b6120038582611f85565b86555061206b565b601f19841661201986611df5565b60005b828110156120415784890151825560018201915060208501945060208101905061201c565b8683101561205e578489015161205a601f891682611f67565b8355505b6001600288020188555050505b505050505050565b600060808201905061208860008301876118aa565b61209560208301866118d4565b81810360408301526120a781856119a0565b90506120b660608301846118aa565b95945050505050565b7f4f6e6c79206f776e65722063616e20616464206d656d62657273000000000000600082015250565b60006120f5601a83611965565b9150612100826120bf565b602082019050919050565b60006020820190508181036000830152612124816120e8565b9050919050565b600060408201905061214060008301856118aa565b61214d60208301846118d4565b9392505050565b7f4f6e6c7920636f6e7472696275746f72732063616e20636f6d706c6574650000600082015250565b600061218a601e83611965565b915061219582612154565b602082019050919050565b600060208201905081810360008301526121b98161217d565b9050919050565b7f4f6e6c792061737369676e65652063616e20636f6d706c657465000000000000600082015250565b60006121f6601a83611965565b9150612201826121c0565b602082019050919050565b60006020820190508181036000830152612225816121e9565b9050919050565b7f5461736b206e6f7420636c61696d656400000000000000000000000000000000600082015250565b6000612262601083611965565b915061226d8261222c565b602082019050919050565b6000602082019050818103600083015261229181612255565b9050919050565b60006040820190506122ad60008301856118aa565b81810360208301526122bf81846119a0565b90509392505050565b7f4e487b7100000000000000000000000000000000000000000000000000000000600052603260045260246000fd5b7f4f6e6c7920636f6e7472696275746f72732063616e20636c61696d0000000000600082015250565b600061232d601b83611965565b9150612338826122f7565b602082019050919050565b6000602082019050818103600083015261235c81612320565b9050919050565b7f5461736b206e6f74206f70656e00000000000000000000000000000000000000600082015250565b6000612399600d83611965565b91506123a482612363565b602082019050919050565b600060208201905081810360008301526123c88161238c565b905091905056fea2646970667358221220e10c5d7cd6f7b2330b3f4586c1de196bba9f4af8c80db2d50538278ddae87ae064736f6c634300081c0033",
  "linkReferences": {},
  "deployedLinkReferences": {}
}