{
  "_format": "hh-sol-artifact-1",
  "contractName": "CoordiChain",
  "sourceName": "contracts/CoordiChain.sol",
  "abi": [
    {
      "anonymous": false,
      "inputs": [
        {
          "indexed": false,
          "internalType": "uint256",
          "name": "boardId",
          "type": "uint256"
        },
        {
          "indexed": false,
          "internalType": "address",
          "name": "member",
          "type": "address"
        }
      ],
      "name": "MemberAdded",
      "type": "event"
    },
    {
      "anonymous": false,
      "inputs": [
        {
          "indexed": false,
          "internalType": "uint256",
          "name": "id",
          "type": "uint256"
        }
      ],
      "name": "TaskApproved",
      "type": "event"
    },
    {
      "anonymous": false,
      "inputs": [
        {
          "indexed": false,
          "internalType": "uint256",
          "name": "id",
          "type": "uint256"
        },
        {
          "indexed": false,
          "internalType": "address",
          "name": "owner",
          "type": "address"
        }
      ],
      "name": "TaskBoardCreated",
      "type": "event"
    },
    {
      "anonymous": false,
      "inputs": [
        {
          "indexed": false,
          "internalType": "uint256",
          "name": "id",
          "type": "uint256"
        },
        {
          "indexed": false,
          "internalType": "address",
          "name": "assignee",
          "type": "address"
        }
      ],
      "name": "TaskClaimed",
      "type": "event"
    },
    {
      "anonymous": false,
      "inputs": [
        {
          "indexed": false,
          "internalType": "uint256",
          "name": "id",
          "type": "uint256"
        },
        {
          "indexed": false,
          "internalType": "string",
          "name": "cid",
          "type": "string"
        }
      ],
      "name": "TaskCompleted",
      "type": "event"
    },
    {
      "anonymous": false,
      "inputs": [
        {
          "indexed": false,
          "internalType": "uint256",
          "name": "id",
          "type": "uint256"
        },
        {
          "indexed": false,
          "internalType": "address",
          "name": "creator",
          "type": "address"
        },
        {
          "indexed": false,
          "internalType": "string",
          "name": "cid",
          "type": "string"
        },
        {
          "indexed": false,
          "internalType": "uint256",
          "name": "boardId",
          "type": "uint256"
        }
      ],
      "name": "TaskCreated",
      "type": "event"
    },
    {
      "inputs": [
        {
          "internalType": "uint256",
          "name": "boardId",
          "type": "uint256"
        },
        {
          "internalType": "address",
          "name": "member",
          "type": "address"
        },
        {
          "internalType": "enum CoordiChain.Role",
          "name": "role",
          "type": "uint8"
        }
      ],
      "name": "addMember",
      "outputs": [],
      "stateMutability": "nonpayable",
      "type": "function"
    },
    {
      "inputs": [
        {
          "internalType": "uint256",
          "name": "taskId",
          "type": "uint256"
        }
      ],
      "name": "approveTask",
      "outputs": [],
      "stateMutability": "nonpayable",
      "type": "function"
    },
    {
      "inputs": [
        {
          "internalType": "uint256",
          "name": "taskId",
          "type": "uint256"
        }
      ],
      "name": "claimTask",
      "outputs": [],
      "stateMutability": "nonpayable",
      "type": "function"
    },
    {
      "inputs": [
        {
          "internalType": "uint256",
          "name": "taskId",
          "type": "uint256"
        },
        {
          "internalType": "string",
          "name": "deliverableCID",
          "type": "string"
        }
      ],
      "name": "completeTask",
      "outputs": [],
      "stateMutability": "nonpayable",
      "type": "function"
    },
    {
      "inputs": [
        {
          "internalType": "uint256",
          "name": "boardId",
          "type": "uint256"
        },
        {
          "internalType": "string",
          "name": "metadataCID",
          "type": "string"
        }
      ],
      "name": "createTask",
      "outputs": [],
      "stateMutability": "nonpayable",
      "type": "function"
    },
    {
      "inputs": [],
      "name": "createTaskBoard",
      "outputs": [
        {
          "internalType": "uint256",
          "name": "",
          "type": "uint256"
        }
      ],
      "stateMutability": "nonpayable",
      "type": "function"
    },
    {
      "inputs": [
        {
          "internalType": "uint256",
          "name": "boardId",
          "type": "uint256"
        }
      ],
      "name": "getBoardMembers",
      "outputs": [
        {
          "internalType": "address[]",
          "name": "",
          "type": "address[]"
        }
      ],
      "stateMutability": "view",
      "type": "function"
    },
    {
      "inputs": [
        {
          "internalType": "uint256",
          "name": "boardId",
          "type": "uint256"
        }
      ],
      "name": "getBoardOwner",
      "outputs": [
        {
          "internalType": "address",
          "name": "",
          "type": "address"
        }
      ],
      "stateMutability": "view",
      "type": "function"
    },
    {
      "inputs": [
        {
          "internalType": "uint256",
          "name": "boardId",
          "type": "uint256"
        },
        {
          "internalType": "address",
          "name": "user",
          "type": "address"
        }
      ],
      "name": "getBoardRole",
      "outputs": [
        {
          "internalType": "enum CoordiChain.Role",
          "name": "",
          "type": "uint8"
        }
      ],
      "stateMutability": "view",
      "type": "function"
    },
    {
      "inputs": [
        {
          "internalType": "uint256",
          "name": "boardId",
          "type": "uint256"
        }
      ],
      "name": "getBoardTasks",
      "outputs": [
        {
          "internalType": "uint256[]",
          "name": "",
          "type": "uint256[]"
        }
      ],
      "stateMutability": "view",
      "type": "function"
    },
    {
      "inputs": [
        {
          "internalType": "uint256",
          "name": "boardId",
          "type": "uint256"
        }
      ],
      "name": "getMembers",
      "outputs": [
        {
          "internalType": "address[]",
          "name": "",
          "type": "address[]"
        }
      ],
      "stateMutability": "view",
      "type": "function"
    },
    {
      "inputs": [
        {
          "internalType": "uint256",
          "name": "boardId",
          "type": "uint256"
        },
        {
          "internalType": "address",
          "name": "user",
          "type": "address"
        }
      ],
      "name": "isMember",
      "outputs": [
        {
          "internalType": "bool",
          "name": "",
          "type": "bool"
        }
      ],
      "stateMutability": "view",
      "type": "function"
    },
    {
      "inputs": [],
      "name": "nextBoardId",
      "outputs": [
        {
          "internalType": "uint256",
          "name": "",
          "type": "uint256"
        }
      ],
      "stateMutability": "view",
      "type": "function"
    },
    {
      "inputs": [],
      "name": "nextTaskId",
      "outputs": [
        {
          "internalType": "uint256",
          "name": "",
          "type": "uint256"
        }
      ],
      "stateMutability": "view",
      "type": "function"
    },
    {
      "inputs": [
        {
          "internalType": "uint256",
          "name": "",
          "type": "uint256"
        }
      ],
      "name": "tasks",
      "outputs": [
        {
          "internalType": "uint256",
          "name": "id",
          "type": "uint256"
        },
        {
          "internalType": "address",
          "name": "creator",
          "type": "address"
        },
        {
          "internalType": "address",
          "name": "assignee",
          "type": "address"
        },
        {
          "internalType": "enum CoordiChain.TaskStatus",
          "name": "status",
          "type": "uint8"
        },
        {
          "internalType": "string",
          "name": "metadataCID",
          "type": "string"
        },
        {
          "internalType": "string",
          "name": "deliverableCID",
          "type": "string"
        },
        {
          "internalType": "uint256",
          "name": "boardId",
          "type": "uint256"
        }
      ],
      "stateMutability": "view",
      "type": "function"
    }
  ],
  "bytecode": "0x6080604052348015600f57600080fd5b506124e48061001f6000396000f3fe608060405234801561001057600080fd5b50600436106100f55760003560e01c80638d97767211610097578063b80104d011610066578063b80104d01461029a578063c46cd61e146102b8578063c477ecab146102e8578063fdc3d8d714610318576100f5565b80638d977672146101e85780638dd334951461021e578063933b376f1461023a578063b6430cce1461026a576100f5565b806344873102116100d3578063448731021461014e57806374aaa7601461017e5780637d9e10f51461019a578063817135e0146101ca576100f5565b80630a07fae6146100fa57806316d41b94146101165780633f1fbc8614610132575b600080fd5b610114600480360381019061010f919061158e565b610336565b005b610130600480360381019061012b9190611701565b610557565b005b61014c600480360381019061014791906117e0565b6108be565b005b6101686004803603810190610163919061158e565b610a74565b60405161017591906118f1565b60405180910390f35b61019860048036038101906101939190611701565b610ae2565b005b6101b460048036038101906101af9190611913565b610d51565b6040516101c1919061196e565b60405180910390f35b6101d2610e13565b6040516101df9190611998565b60405180910390f35b61020260048036038101906101fd919061158e565b610e19565b6040516102159796959493929190611ab8565b60405180910390f35b6102386004803603810190610233919061158e565b610fb8565b005b610254600480360381019061024f919061158e565b6111c5565b6040516102619190611bf3565b60405180910390f35b610284600480360381019061027f9190611913565b611269565b6040516102919190611c5d565b60405180910390f35b6102a26112d4565b6040516102af9190611998565b60405180910390f35b6102d260048036038101906102cd919061158e565b61145a565b6040516102df9190611c78565b60405180910390f35b61030260048036038101906102fd919061158e565b61149a565b60405161030f9190611bf3565b60405180910390f35b61032061153e565b60405161032d9190611998565b60405180910390f35b600060026000838152602001908152602001600020905060006003600083600501548152602001908152602001600020905060038081111561037b5761037a6119c2565b5b8160030160003373ffffffffffffffffffffffffffffffffffffffff1673ffffffffffffffffffffffffffffffffffffffff16815260200190815260200160002060009054906101000a900460ff1660038111156103dc576103db6119c2565b5b148061043757508160010160009054906101000a900473ffffffffffffffffffffffffffffffffffffffff1673ffffffffffffffffffffffffffffffffffffffff163373ffffffffffffffffffffffffffffffffffffffff16145b610476576040517f08c379a000000000000000000000000000000000000000000000000000000000815260040161046d90611d05565b60405180910390fd5b6002600381111561048a576104896119c2565b5b8260020160149054906101000a900460ff1660038111156104ae576104ad6119c2565b5b146104ee576040517f08c379a00000000000000000000000000000000000000000000000000000000081526004016104e590611d71565b60405180910390fd5b60038260020160146101000a81548160ff02191690836003811115610516576105156119c2565b5b02179055507f3e9d27a1c2a828db29e4b2a17fbd1bc70201ef21aec4f74b9fa051b02e38e3f08360405161054a9190611998565b60405180910390a1505050565b600060036000848152602001908152602001600020905060016003811115610582576105816119c2565b5b8160030160003373ffffffffffffffffffffffffffffffffffffffff1673ffffffffffffffffffffffffffffffffffffffff16815260200190815260200160002060009054906101000a900460ff1660038111156105e3576105e26119c2565b5b14806106615750600260038111156105fe576105fd6119c2565b5b8160030160003373ffffffffffffffffffffffffffffffffffffffff1673ffffffffffffffffffffffffffffffffffffffff16815260200190815260200160002060009054906101000a900460ff16600381111561065f5761065e6119c2565b5b145b6106a0576040517f08c379a000000000000000000000000000000000000000000000000000000000815260040161069790611ddd565b60405180910390fd5b60008060008154809291906106b490611e2c565b9190505590506040518060e001604052808281526020013373ffffffffffffffffffffffffffffffffffffffff168152602001600073ffffffffffffffffffffffffffffffffffffffff16815260200160006003811115610718576107176119c2565b5b815260200184815260200160405180602001604052806000815250815260200185815250600260008381526020019081526020016000206000820151816000015560208201518160010160006101000a81548173ffffffffffffffffffffffffffffffffffffffff021916908373ffffffffffffffffffffffffffffffffffffffff16021790555060408201518160020160006101000a81548173ffffffffffffffffffffffffffffffffffffffff021916908373ffffffffffffffffffffffffffffffffffffffff16021790555060608201518160020160146101000a81548160ff02191690836003811115610812576108116119c2565b5b0217905550608082015181600301908161082c9190612080565b5060a08201518160040190816108429190612080565b5060c08201518160050155905050816002018190806001815401808255809150506001900390600052602060002001600090919091909150557f9e3c9757475c00b86393e183b68033bb76e48fa164849c7428ad17f62e1954a7813385876040516108b09493929190612152565b60405180910390a150505050565b60006003600085815260200190815260200160002090508060000160009054906101000a900473ffffffffffffffffffffffffffffffffffffffff1673ffffffffffffffffffffffffffffffffffffffff163373ffffffffffffffffffffffffffffffffffffffff1614610967576040517f08c379a000000000000000000000000000000000000000000000000000000000815260040161095e906121ea565b60405180910390fd5b80600101839080600181540180825580915050600190039060005260206000200160009091909190916101000a81548173ffffffffffffffffffffffffffffffffffffffff021916908373ffffffffffffffffffffffffffffffffffffffff160217905550818160030160008573ffffffffffffffffffffffffffffffffffffffff1673ffffffffffffffffffffffffffffffffffffffff16815260200190815260200160002060006101000a81548160ff02191690836003811115610a3057610a2f6119c2565b5b02179055507ff328ac0f8bcae00933fe87ba0aa2d0d505c1df94bc9c1aa05b8441c28b74032c8484604051610a6692919061220a565b60405180910390a150505050565b606060036000838152602001908152602001600020600201805480602002602001604051908101604052809291908181526020018280548015610ad657602002820191906000526020600020905b815481526020019060010190808311610ac2575b50505050509050919050565b600060026000848152602001908152602001600020905060006003600083600501548152602001908152602001600020905060026003811115610b2857610b276119c2565b5b8160030160003373ffffffffffffffffffffffffffffffffffffffff1673ffffffffffffffffffffffffffffffffffffffff16815260200190815260200160002060009054906101000a900460ff166003811115610b8957610b886119c2565b5b14610bc9576040517f08c379a0000000000000000000000000000000000000000000000000000000008152600401610bc09061227f565b60405180910390fd5b3373ffffffffffffffffffffffffffffffffffffffff168260020160009054906101000a900473ffffffffffffffffffffffffffffffffffffffff1673ffffffffffffffffffffffffffffffffffffffff1614610c5b576040517f08c379a0000000000000000000000000000000000000000000000000000000008152600401610c52906122eb565b60405180910390fd5b60016003811115610c6f57610c6e6119c2565b5b8260020160149054906101000a900460ff166003811115610c9357610c926119c2565b5b14610cd3576040517f08c379a0000000000000000000000000000000000000000000000000000000008152600401610cca90612357565b60405180910390fd5b82826004019081610ce49190612080565b5060028260020160146101000a81548160ff02191690836003811115610d0d57610d0c6119c2565b5b02179055507f7e6ffc29fe63759579d96a0457a8f2e08339aca345bd469f59dc2e61f82a5aeb8484604051610d43929190612377565b60405180910390a150505050565b60008060036000858152602001908152602001600020905060005b8160010180549050811015610e06578373ffffffffffffffffffffffffffffffffffffffff16826001018281548110610da857610da76123a7565b5b9060005260206000200160009054906101000a900473ffffffffffffffffffffffffffffffffffffffff1673ffffffffffffffffffffffffffffffffffffffff1603610df957600192505050610e0d565b8080600101915050610d6c565b5060009150505b92915050565b60015481565b60026020528060005260406000206000915090508060000154908060010160009054906101000a900473ffffffffffffffffffffffffffffffffffffffff16908060020160009054906101000a900473ffffffffffffffffffffffffffffffffffffffff16908060020160149054906101000a900460ff1690806003018054610ea190611ea3565b80601f0160208091040260200160405190810160405280929190818152602001828054610ecd90611ea3565b8015610f1a5780601f10610eef57610100808354040283529160200191610f1a565b820191906000526020600020905b815481529060010190602001808311610efd57829003601f168201915b505050505090806004018054610f2f90611ea3565b80601f0160208091040260200160405190810160405280929190818152602001828054610f5b90611ea3565b8015610fa85780601f10610f7d57610100808354040283529160200191610fa8565b820191906000526020600020905b815481529060010190602001808311610f8b57829003601f168201915b5050505050908060050154905087565b600060026000838152602001908152602001600020905060006003600083600501548152602001908152602001600020905060026003811115610ffe57610ffd6119c2565b5b8160030160003373ffffffffffffffffffffffffffffffffffffffff1673ffffffffffffffffffffffffffffffffffffffff16815260200190815260200160002060009054906101000a900460ff16600381111561105f5761105e6119c2565b5b1461109f576040517f08c379a000000000000000000000000000000000000000000000000000000000815260040161109690612422565b60405180910390fd5b600060038111156110b3576110b26119c2565b5b8260020160149054906101000a900460ff1660038111156110d7576110d66119c2565b5b14611117576040517f08c379a000000000000000000000000000000000000000000000000000000000815260040161110e9061248e565b60405180910390fd5b338260020160006101000a81548173ffffffffffffffffffffffffffffffffffffffff021916908373ffffffffffffffffffffffffffffffffffffffff16021790555060018260020160146101000a81548160ff02191690836003811115611182576111816119c2565b5b02179055507f1d8996e29d44a50435d568c283ce2580e5706f87b19ff3d34f455c9d2a99462083336040516111b892919061220a565b60405180910390a1505050565b60606003600083815260200190815260200160002060010180548060200260200160405190810160405280929190818152602001828054801561125d57602002820191906000526020600020905b8160009054906101000a900473ffffffffffffffffffffffffffffffffffffffff1673ffffffffffffffffffffffffffffffffffffffff1681526020019060010190808311611213575b50505050509050919050565b60006003600084815260200190815260200160002060030160008373ffffffffffffffffffffffffffffffffffffffff1673ffffffffffffffffffffffffffffffffffffffff16815260200190815260200160002060009054906101000a900460ff16905092915050565b600080600160008154809291906112ea90611e2c565b9190505590506000600360008381526020019081526020016000209050338160000160006101000a81548173ffffffffffffffffffffffffffffffffffffffff021916908373ffffffffffffffffffffffffffffffffffffffff16021790555080600101339080600181540180825580915050600190039060005260206000200160009091909190916101000a81548173ffffffffffffffffffffffffffffffffffffffff021916908373ffffffffffffffffffffffffffffffffffffffff16021790555060018160030160003373ffffffffffffffffffffffffffffffffffffffff1673ffffffffffffffffffffffffffffffffffffffff16815260200190815260200160002060006101000a81548160ff02191690836003811115611414576114136119c2565b5b02179055507fd2fa7ad987beeda2bbf61168739a2586e620dd6f1e1deed6f93f48cc2ec5f72c823360405161144a92919061220a565b60405180910390a1819250505090565b60006003600083815260200190815260200160002060000160009054906101000a900473ffffffffffffffffffffffffffffffffffffffff169050919050565b60606003600083815260200190815260200160002060010180548060200260200160405190810160405280929190818152602001828054801561153257602002820191906000526020600020905b8160009054906101000a900473ffffffffffffffffffffffffffffffffffffffff1673ffffffffffffffffffffffffffffffffffffffff16815260200190600101908083116114e8575b50505050509050919050565b60005481565b6000604051905090565b600080fd5b600080fd5b6000819050919050565b61156b81611558565b811461157657600080fd5b50565b60008135905061158881611562565b92915050565b6000602082840312156115a4576115a361154e565b5b60006115b284828501611579565b91505092915050565b600080fd5b600080fd5b6000601f19601f8301169050919050565b7f4e487b7100000000000000000000000000000000000000000000000000000000600052604160045260246000fd5b61160e826115c5565b810181811067ffffffffffffffff8211171561162d5761162c6115d6565b5b80604052505050565b6000611640611544565b905061164c8282611605565b919050565b600067ffffffffffffffff82111561166c5761166b6115d6565b5b611675826115c5565b9050602081019050919050565b82818337600083830152505050565b60006116a461169f84611651565b611636565b9050828152602081018484840111156116c0576116bf6115c0565b5b6116cb848285611682565b509392505050565b600082601f8301126116e8576116e76115bb565b5b81356116f8848260208601611691565b91505092915050565b600080604083850312156117185761171761154e565b5b600061172685828601611579565b925050602083013567ffffffffffffffff81111561174757611746611553565b5b611753858286016116d3565b9150509250929050565b600073ffffffffffffffffffffffffffffffffffffffff82169050919050565b60006117888261175d565b9050919050565b6117988161177d565b81146117a357600080fd5b50565b6000813590506117b58161178f565b92915050565b600481106117c857600080fd5b50565b6000813590506117da816117bb565b92915050565b6000806000606084860312156117f9576117f861154e565b5b600061180786828701611579565b9350506020611818868287016117a6565b9250506040611829868287016117cb565b9150509250925092565b600081519050919050565b600082825260208201905092915050565b6000819050602082019050919050565b61186881611558565b82525050565b600061187a838361185f565b60208301905092915050565b6000602082019050919050565b600061189e82611833565b6118a8818561183e565b93506118b38361184f565b8060005b838110156118e45781516118cb888261186e565b97506118d683611886565b9250506001810190506118b7565b5085935050505092915050565b6000602082019050818103600083015261190b8184611893565b905092915050565b6000806040838503121561192a5761192961154e565b5b600061193885828601611579565b9250506020611949858286016117a6565b9150509250929050565b60008115159050919050565b61196881611953565b82525050565b6000602082019050611983600083018461195f565b92915050565b61199281611558565b82525050565b60006020820190506119ad6000830184611989565b92915050565b6119bc8161177d565b82525050565b7f4e487b7100000000000000000000000000000000000000000000000000000000600052602160045260246000fd5b60048110611a0257611a016119c2565b5b50565b6000819050611a13826119f1565b919050565b6000611a2382611a05565b9050919050565b611a3381611a18565b82525050565b600081519050919050565b600082825260208201905092915050565b60005b83811015611a73578082015181840152602081019050611a58565b60008484015250505050565b6000611a8a82611a39565b611a948185611a44565b9350611aa4818560208601611a55565b611aad816115c5565b840191505092915050565b600060e082019050611acd600083018a611989565b611ada60208301896119b3565b611ae760408301886119b3565b611af46060830187611a2a565b8181036080830152611b068186611a7f565b905081810360a0830152611b1a8185611a7f565b9050611b2960c0830184611989565b98975050505050505050565b600081519050919050565b600082825260208201905092915050565b6000819050602082019050919050565b611b6a8161177d565b82525050565b6000611b7c8383611b61565b60208301905092915050565b6000602082019050919050565b6000611ba082611b35565b611baa8185611b40565b9350611bb583611b51565b8060005b83811015611be6578151611bcd8882611b70565b9750611bd883611b88565b925050600181019050611bb9565b5085935050505092915050565b60006020820190508181036000830152611c0d8184611b95565b905092915050565b60048110611c2657611c256119c2565b5b50565b6000819050611c3782611c15565b919050565b6000611c4782611c29565b9050919050565b611c5781611c3c565b82525050565b6000602082019050611c726000830184611c4e565b92915050565b6000602082019050611c8d60008301846119b3565b92915050565b7f4f6e6c7920726576696577657273206f722063726561746f722063616e20617060008201527f70726f7665000000000000000000000000000000000000000000000000000000602082015250565b6000611cef602583611a44565b9150611cfa82611c93565b604082019050919050565b60006020820190508181036000830152611d1e81611ce2565b9050919050565b7f5461736b206e6f7420636f6d706c657465640000000000000000000000000000600082015250565b6000611d5b601283611a44565b9150611d6682611d25565b602082019050919050565b60006020820190508181036000830152611d8a81611d4e565b9050919050565b7f4e6f7420617574686f72697a656420746f20637265617465207461736b730000600082015250565b6000611dc7601e83611a44565b9150611dd282611d91565b602082019050919050565b60006020820190508181036000830152611df681611dba565b9050919050565b7f4e487b7100000000000000000000000000000000000000000000000000000000600052601160045260246000fd5b6000611e3782611558565b91507fffffffffffffffffffffffffffffffffffffffffffffffffffffffffffffffff8203611e6957611e68611dfd565b5b600182019050919050565b7f4e487b7100000000000000000000000000000000000000000000000000000000600052602260045260246000fd5b60006002820490506001821680611ebb57607f821691505b602082108103611ece57611ecd611e74565b5b50919050565b60008190508160005260206000209050919050565b60006020601f8301049050919050565b600082821b905092915050565b600060088302611f367fffffffffffffffffffffffffffffffffffffffffffffffffffffffffffffffff82611ef9565b611f408683611ef9565b95508019841693508086168417925050509392505050565b6000819050919050565b6000611f7d611f78611f7384611558565b611f58565b611558565b9050919050565b6000819050919050565b611f9783611f62565b611fab611fa382611f84565b848454611f06565b825550505050565b600090565b611fc0611fb3565b611fcb818484611f8e565b505050565b5b81811015611fef57611fe4600082611fb8565b600181019050611fd1565b5050565b601f8211156120345761200581611ed4565b61200e84611ee9565b8101602085101561201d578190505b61203161202985611ee9565b830182611fd0565b50505b505050565b600082821c905092915050565b600061205760001984600802612039565b1980831691505092915050565b60006120708383612046565b9150826002028217905092915050565b61208982611a39565b67ffffffffffffffff8111156120a2576120a16115d6565b5b6120ac8254611ea3565b6120b7828285611ff3565b600060209050601f8311600181146120ea57600084156120d8578287015190505b6120e28582612064565b86555061214a565b601f1984166120f886611ed4565b60005b82811015612120578489015182556001820191506020850194506020810190506120fb565b8683101561213d5784890151612139601f891682612046565b8355505b6001600288020188555050505b505050505050565b60006080820190506121676000830187611989565b61217460208301866119b3565b81810360408301526121868185611a7f565b90506121956060830184611989565b95945050505050565b7f4f6e6c79206f776e65722063616e20616464206d656d62657273000000000000600082015250565b60006121d4601a83611a44565b91506121df8261219e565b602082019050919050565b60006020820190508181036000830152612203816121c7565b9050919050565b600060408201905061221f6000830185611989565b61222c60208301846119b3565b9392505050565b7f4f6e6c7920636f6e7472696275746f72732063616e20636f6d706c6574650000600082015250565b6000612269601e83611a44565b915061227482612233565b602082019050919050565b600060208201905081810360008301526122988161225c565b9050919050565b7f4f6e6c792061737369676e65652063616e20636f6d706c657465000000000000600082015250565b60006122d5601a83611a44565b91506122e08261229f565b602082019050919050565b60006020820190508181036000830152612304816122c8565b9050919050565b7f5461736b206e6f7420636c61696d656400000000000000000000000000000000600082015250565b6000612341601083611a44565b915061234c8261230b565b602082019050919050565b6000602082019050818103600083015261237081612334565b9050919050565b600060408201905061238c6000830185611989565b818103602083015261239e8184611a7f565b90509392505050565b7f4e487b7100000000000000000000000000000000000000000000000000000000600052603260045260246000fd5b7f4f6e6c7920636f6e7472696275746f72732063616e20636c61696d0000000000600082015250565b600061240c601b83611a44565b9150612417826123d6565b602082019050919050565b6000602082019050818103600083015261243b816123ff565b9050919050565b7f5461736b206e6f74206f70656e00000000000000000000000000000000000000600082015250565b6000612478600d83611a44565b915061248382612442565b602082019050919050565b600060208201905081810360008301526124a78161246b565b905091905056fea26469706673582212206d748f846067c6228e551cdba226573f0e9e3385ecba951a2f2f47c5dc43afbd64736f6c634300081c0033",
  "linkReferences": {},
  "deployedLinkReferences": {}
}