{
  "_format": "hh-sol-artifact-1",
  "contractName": "CoordiChain",
  "sourceName": "contracts/CoordiChain.sol",
  "abi": [
    {
      "inputs": [
        {
          "internalType": "string",
          "name": "name",
          "type": "string"
        }
      ],
      "name": "createTaskBoard",
      "outputs": [],
      "stateMutability": "nonpayable",
      "type": "function"
    },
    {
      "inputs": [
        {
          "internalType": "uint256",
          "name": "boardId",
          "type": "uint256"
        },
        {
          "internalType": "address",
          "name": "member",
          "type": "address"
        }
      ],
      "name": "addMember",
      "outputs": [],
      "stateMutability": "nonpayable",
      "type": "function"
    },
    {
      "inputs": [
        {
          "internalType": "uint256",
          "name": "boardId",
          "type": "uint256"
        }
      ],
      "name": "getBoardMembers",
      "outputs": [
        {
          "internalType": "address[]",
          "name": "",
          "type": "address[]"
        }
      ],
      "stateMutability": "view",
      "type": "function"
    },
    {
      "inputs": [
        {
          "internalType": "uint256",
          "name": "boardId",
          "type": "uint256"
        }
      ],
      "name": "getBoardTasks",
      "outputs": [
        {
          "internalType": "uint256[]",
          "name": "",
          "type": "uint256[]"
        }
      ],
      "stateMutability": "view",
      "type": "function"
    },
    {
      "inputs": [
        {
          "internalType": "uint256",
          "name": "boardId",
          "type": "uint256"
        },
        {
          "internalType": "string",
          "name": "metadataCID",
          "type": "string"
        }
      ],
      "name": "createTask",
      "outputs": [],
      "stateMutability": "nonpayable",
      "type": "function"
    },
    {
      "inputs": [
        {
          "internalType": "uint256",
          "name": "taskId",
          "type": "uint256"
        }
      ],
      "name": "claimTask",
      "outputs": [],
      "stateMutability": "nonpayable",
      "type": "function"
    },
    {
      "inputs": [
        {
          "internalType": "uint256",
          "name": "taskId",
          "type": "uint256"
        },
        {
          "internalType": "string",
          "name": "deliverableCID",
          "type": "string"
        }
      ],
      "name": "completeTask",
      "outputs": [],
      "stateMutability": "nonpayable",
      "type": "function"
    },
    {
      "inputs": [
        {
          "internalType": "uint256",
          "name": "taskId",
          "type": "uint256"
        }
      ],
      "name": "approveTask",
      "outputs": [],
      "stateMutability": "nonpayable",
      "type": "function"
    },
    {
      "inputs": [
        {
          "internalType": "uint256",
          "name": "taskId",
          "type": "uint256"
        }
      ],
      "name": "tasks",
      "outputs": [
        {
          "internalType": "uint256",
          "name": "id",
          "type": "uint256"
        },
        {
          "internalType": "address",
          "name": "creator",
          "type": "address"
        },
        {
          "internalType": "address",
          "name": "assignee",
          "type": "address"
        },
        {
          "internalType": "uint8",
          "name": "status",
          "type": "uint8"
        },
        {
          "internalType": "string",
          "name": "metadataCID",
          "type": "string"
        },
        {
          "internalType": "string",
          "name": "deliverableCID",
          "type": "string"
        }
      ],
      "stateMutability": "view",
      "type": "function"
    }
  ],
  "bytecode": "0x6080604052348015600f57600080fd5b5061137c8061001f6000396000f3fe608060405234801561001057600080fd5b50600436106100625760003560e01c80630a07fae614610067578063111002aa1461008357806374aaa7601461009f5780638d977672146100bb5780638dd33495146100f0578063fdc3d8d71461010c575b600080fd5b610081600480360381019061007c9190610956565b61012a565b005b61009d60048036038101906100989190610ac9565b6102b3565b005b6100b960048036038101906100b49190610b12565b610493565b005b6100d560048036038101906100d09190610956565b610631565b6040516100e796959493929190610cb4565b60405180910390f35b61010a60048036038101906101059190610956565b6107ca565b005b610114610906565b6040516101219190610d23565b60405180910390f35b60006001600083815260200190815260200160002090506002600381111561015557610154610bbe565b5b8160020160149054906101000a900460ff16600381111561017957610178610bbe565b5b146101b9576040517f08c379a00000000000000000000000000000000000000000000000000000000081526004016101b090610d8a565b60405180910390fd5b3373ffffffffffffffffffffffffffffffffffffffff168160010160009054906101000a900473ffffffffffffffffffffffffffffffffffffffff1673ffffffffffffffffffffffffffffffffffffffff161461024b576040517f08c379a000000000000000000000000000000000000000000000000000000000815260040161024290610df6565b60405180910390fd5b60038160020160146101000a81548160ff0219169083600381111561027357610272610bbe565b5b02179055507f3e9d27a1c2a828db29e4b2a17fbd1bc70201ef21aec4f74b9fa051b02e38e3f0826040516102a79190610d23565b60405180910390a15050565b6040518060c0016040528060005481526020013373ffffffffffffffffffffffffffffffffffffffff168152602001600073ffffffffffffffffffffffffffffffffffffffff1681526020016000600381111561031357610312610bbe565b5b81526020018281526020016040518060200160405280600081525081525060016000805481526020019081526020016000206000820151816000015560208201518160010160006101000a81548173ffffffffffffffffffffffffffffffffffffffff021916908373ffffffffffffffffffffffffffffffffffffffff16021790555060408201518160020160006101000a81548173ffffffffffffffffffffffffffffffffffffffff021916908373ffffffffffffffffffffffffffffffffffffffff16021790555060608201518160020160146101000a81548160ff0219169083600381111561040857610407610bbe565b5b021790555060808201518160030190816104229190611022565b5060a08201518160040190816104389190611022565b509050507f5b2493258cbc7169ad9389516998320ce25dc27637cea28ddd0d033af122bfa66000543383604051610471939291906110f4565b60405180910390a160008081548092919061048b90611161565b919050555050565b6000600160008481526020019081526020016000209050600160038111156104be576104bd610bbe565b5b8160020160149054906101000a900460ff1660038111156104e2576104e1610bbe565b5b14610522576040517f08c379a0000000000000000000000000000000000000000000000000000000008152600401610519906111f5565b60405180910390fd5b3373ffffffffffffffffffffffffffffffffffffffff168160020160009054906101000a900473ffffffffffffffffffffffffffffffffffffffff1673ffffffffffffffffffffffffffffffffffffffff16146105b4576040517f08c379a00000000000000000000000000000000000000000000000000000000081526004016105ab90611261565b60405180910390fd5b818160040190816105c59190611022565b5060028160020160146101000a81548160ff021916908360038111156105ee576105ed610bbe565b5b02179055507f7e6ffc29fe63759579d96a0457a8f2e08339aca345bd469f59dc2e61f82a5aeb8383604051610624929190611281565b60405180910390a1505050565b60016020528060005260406000206000915090508060000154908060010160009054906101000a900473ffffffffffffffffffffffffffffffffffffffff16908060020160009054906101000a900473ffffffffffffffffffffffffffffffffffffffff16908060020160149054906101000a900460ff16908060030180546106b990610e45565b80601f01602080910402602001604051908101604052809291908181526020018280546106e590610e45565b80156107325780601f1061070757610100808354040283529160200191610732565b820191906000526020600020905b81548152906001019060200180831161071557829003601f168201915b50505050509080600401805461074790610e45565b80601f016020809104026020016040519081016040528092919081815260200182805461077390610e45565b80156107c05780601f10610795576101008083540402835291602001916107c0565b820191906000526020600020905b8154815290600101906020018083116107a357829003601f168201915b5050505050905086565b6000600160008381526020019081526020016000209050600060038111156107f5576107f4610bbe565b5b8160020160149054906101000a900460ff16600381111561081957610818610bbe565b5b14610859576040517f08c379a0000000000000000000000000000000000000000000000000000000008152600401610850906112fd565b60405180910390fd5b338160020160006101000a81548173ffffffffffffffffffffffffffffffffffffffff021916908373ffffffffffffffffffffffffffffffffffffffff16021790555060018160020160146101000a81548160ff021916908360038111156108c4576108c3610bbe565b5b02179055507f1d8996e29d44a50435d568c283ce2580e5706f87b19ff3d34f455c9d2a99462082336040516108fa92919061131d565b60405180910390a15050565b60005481565b6000604051905090565b600080fd5b600080fd5b6000819050919050565b61093381610920565b811461093e57600080fd5b50565b6000813590506109508161092a565b92915050565b60006020828403121561096c5761096b610916565b5b600061097a84828501610941565b91505092915050565b600080fd5b600080fd5b6000601f19601f8301169050919050565b7f4e487b7100000000000000000000000000000000000000000000000000000000600052604160045260246000fd5b6109d68261098d565b810181811067ffffffffffffffff821117156109f5576109f461099e565b5b80604052505050565b6000610a0861090c565b9050610a1482826109cd565b919050565b600067ffffffffffffffff821115610a3457610a3361099e565b5b610a3d8261098d565b9050602081019050919050565b82818337600083830152505050565b6000610a6c610a6784610a19565b6109fe565b905082815260208101848484011115610a8857610a87610988565b5b610a93848285610a4a565b509392505050565b600082601f830112610ab057610aaf610983565b5b8135610ac0848260208601610a59565b91505092915050565b600060208284031215610adf57610ade610916565b5b600082013567ffffffffffffffff811115610afd57610afc61091b565b5b610b0984828501610a9b565b91505092915050565b60008060408385031215610b2957610b28610916565b5b6000610b3785828601610941565b925050602083013567ffffffffffffffff811115610b5857610b5761091b565b5b610b6485828601610a9b565b9150509250929050565b610b7781610920565b82525050565b600073ffffffffffffffffffffffffffffffffffffffff82169050919050565b6000610ba882610b7d565b9050919050565b610bb881610b9d565b82525050565b7f4e487b7100000000000000000000000000000000000000000000000000000000600052602160045260246000fd5b60048110610bfe57610bfd610bbe565b5b50565b6000819050610c0f82610bed565b919050565b6000610c1f82610c01565b9050919050565b610c2f81610c14565b82525050565b600081519050919050565b600082825260208201905092915050565b60005b83811015610c6f578082015181840152602081019050610c54565b60008484015250505050565b6000610c8682610c35565b610c908185610c40565b9350610ca0818560208601610c51565b610ca98161098d565b840191505092915050565b600060c082019050610cc96000830189610b6e565b610cd66020830188610baf565b610ce36040830187610baf565b610cf06060830186610c26565b8181036080830152610d028185610c7b565b905081810360a0830152610d168184610c7b565b9050979650505050505050565b6000602082019050610d386000830184610b6e565b92915050565b7f5461736b206e6f7420636f6d706c657465640000000000000000000000000000600082015250565b6000610d74601283610c40565b9150610d7f82610d3e565b602082019050919050565b60006020820190508181036000830152610da381610d67565b9050919050565b7f4f6e6c792063726561746f722063616e20617070726f76650000000000000000600082015250565b6000610de0601883610c40565b9150610deb82610daa565b602082019050919050565b60006020820190508181036000830152610e0f81610dd3565b9050919050565b7f4e487b7100000000000000000000000000000000000000000000000000000000600052602260045260246000fd5b60006002820490506001821680610e5d57607f821691505b602082108103610e7057610e6f610e16565b5b50919050565b60008190508160005260206000209050919050565b60006020601f8301049050919050565b600082821b905092915050565b600060088302610ed87fffffffffffffffffffffffffffffffffffffffffffffffffffffffffffffffff82610e9b565b610ee28683610e9b565b95508019841693508086168417925050509392505050565b6000819050919050565b6000610f1f610f1a610f1584610920565b610efa565b610920565b9050919050565b6000819050919050565b610f3983610f04565b610f4d610f4582610f26565b848454610ea8565b825550505050565b600090565b610f62610f55565b610f6d818484610f30565b505050565b5b81811015610f9157610f86600082610f5a565b600181019050610f73565b5050565b601f821115610fd657610fa781610e76565b610fb084610e8b565b81016020851015610fbf578190505b610fd3610fcb85610e8b565b830182610f72565b50505b505050565b600082821c905092915050565b6000610ff960001984600802610fdb565b1980831691505092915050565b60006110128383610fe8565b9150826002028217905092915050565b61102b82610c35565b67ffffffffffffffff8111156110445761104361099e565b5b61104e8254610e45565b611059828285610f95565b600060209050601f83116001811461108c576000841561107a578287015190505b6110848582611006565b8655506110ec565b601f19841661109a86610e76565b60005b828110156110c25784890151825560018201915060208501945060208101905061109d565b868310156110df57848901516110db601f891682610fe8565b8355505b6001600288020188555050505b505050505050565b60006060820190506111096000830186610b6e565b6111166020830185610baf565b81810360408301526111288184610c7b565b9050949350505050565b7f4e487b7100000000000000000000000000000000000000000000000000000000600052601160045260246000fd5b600061116c82610920565b91507fffffffffffffffffffffffffffffffffffffffffffffffffffffffffffffffff820361119e5761119d611132565b5b600182019050919050565b7f5461736b206e6f7420636c61696d656400000000000000000000000000000000600082015250565b60006111df601083610c40565b91506111ea826111a9565b602082019050919050565b6000602082019050818103600083015261120e816111d2565b9050919050565b7f4f6e6c792061737369676e65652063616e20636f6d706c657465000000000000600082015250565b600061124b601a83610c40565b915061125682611215565b602082019050919050565b6000602082019050818103600083015261127a8161123e565b9050919050565b60006040820190506112966000830185610b6e565b81810360208301526112a88184610c7b565b90509392505050565b7f5461736b206e6f74206f70656e00000000000000000000000000000000000000600082015250565b60006112e7600d83610c40565b91506112f2826112b1565b602082019050919050565b60006020820190508181036000830152611316816112da565b9050919050565b60006040820190506113326000830185610b6e565b61133f6020830184610baf565b939250505056fea26469706673582212202a1c2a59e13c21a5f065552cfd70657c414c793dbc5948c8c7252506ba4270ce64736f6c634300081c0033",
  "linkReferences": {},
  "deployedLinkReferences": {}
}